{
  "_format": "hh-sol-artifact-1",
  "contractName": "ERC7984Token",
  "sourceName": "contracts/ERC7984Token.sol",
  "abi": [
    {
      "inputs": [
        {
          "internalType": "uint64",
          "name": "initialSupply",
          "type": "uint64"
        }
      ],
      "stateMutability": "nonpayable",
      "type": "constructor"
    },
    {
      "anonymous": false,
      "inputs": [
        {
          "indexed": true,
          "internalType": "address",
          "name": "owner",
          "type": "address"
        },
        {
          "indexed": true,
          "internalType": "address",
          "name": "spender",
          "type": "address"
        }
      ],
      "name": "Approval",
      "type": "event"
    },
    {
      "anonymous": false,
      "inputs": [
        {
          "indexed": true,
          "internalType": "address",
          "name": "from",
          "type": "address"
        },
        {
          "indexed": true,
          "internalType": "address",
          "name": "to",
          "type": "address"
        }
      ],
      "name": "Transfer",
      "type": "event"
    },
    {
      "inputs": [
        {
          "internalType": "address",
          "name": "spender",
          "type": "address"
        },
        {
          "internalType": "externalEuint64",
          "name": "amount",
          "type": "bytes32"
        },
        {
          "internalType": "bytes",
          "name": "proof",
          "type": "bytes"
        }
      ],
      "name": "approve",
      "outputs": [
        {
          "internalType": "bool",
          "name": "",
          "type": "bool"
        }
      ],
      "stateMutability": "nonpayable",
      "type": "function"
    },
    {
      "inputs": [
        {
          "internalType": "address",
          "name": "account",
          "type": "address"
        }
      ],
      "name": "balanceOf",
      "outputs": [
        {
          "internalType": "euint64",
          "name": "",
          "type": "bytes32"
        }
      ],
      "stateMutability": "view",
      "type": "function"
    },
    {
      "inputs": [],
      "name": "decimals",
      "outputs": [
        {
          "internalType": "uint8",
          "name": "",
          "type": "uint8"
        }
      ],
      "stateMutability": "view",
      "type": "function"
    },
    {
      "inputs": [],
      "name": "name",
      "outputs": [
        {
          "internalType": "string",
          "name": "",
          "type": "string"
        }
      ],
      "stateMutability": "view",
      "type": "function"
    },
    {
      "inputs": [],
      "name": "protocolId",
      "outputs": [
        {
          "internalType": "uint256",
          "name": "",
          "type": "uint256"
        }
      ],
      "stateMutability": "pure",
      "type": "function"
    },
    {
      "inputs": [],
      "name": "requestBalanceAccess",
      "outputs": [],
      "stateMutability": "nonpayable",
      "type": "function"
    },
    {
      "inputs": [],
      "name": "symbol",
      "outputs": [
        {
          "internalType": "string",
          "name": "",
          "type": "string"
        }
      ],
      "stateMutability": "view",
      "type": "function"
    },
    {
      "inputs": [],
      "name": "totalSupply",
      "outputs": [
        {
          "internalType": "euint64",
          "name": "",
          "type": "bytes32"
        }
      ],
      "stateMutability": "view",
      "type": "function"
    },
    {
      "inputs": [
        {
          "internalType": "address",
          "name": "to",
          "type": "address"
        },
        {
          "internalType": "externalEuint64",
          "name": "amount",
          "type": "bytes32"
        },
        {
          "internalType": "bytes",
          "name": "proof",
          "type": "bytes"
        }
      ],
      "name": "transfer",
      "outputs": [
        {
          "internalType": "bool",
          "name": "",
          "type": "bool"
        }
      ],
      "stateMutability": "nonpayable",
      "type": "function"
    },
    {
      "inputs": [
        {
          "internalType": "address",
          "name": "from",
          "type": "address"
        },
        {
          "internalType": "address",
          "name": "to",
          "type": "address"
        },
        {
          "internalType": "externalEuint64",
          "name": "amount",
          "type": "bytes32"
        },
        {
          "internalType": "bytes",
          "name": "proof",
          "type": "bytes"
        }
      ],
      "name": "transferFrom",
      "outputs": [
        {
          "internalType": "bool",
          "name": "",
          "type": "bool"
        }
      ],
      "stateMutability": "nonpayable",
      "type": "function"
    }
  ],
  "bytecode": "0x60c0604052600d60809081526c283934bb30ba32902a37b5b2b760991b60a0525f906200002d908262000429565b50604080518082019091526004815263282924ab60e11b602082015260019062000058908262000429565b506002805460ff1916601217905534801562000072575f80fd5b50604051620012e1380380620012e18339810160408190526200009591620004f5565b620001ed62000135604080516080810182525f808252602082018190529181018290526060810191909152506040805160808101825273687820221192c5b662b25367f70076a37bc79b6c815273848b0066793bcc60346da1f49049357399b8d595602082015273a02cda4ca3a71d7c46997716f4283aa851c2881291810191909152731364cbbf2cdf5032c47d8226a6f6fbd2afcdacac606082015290565b80515f80516020620012c183398151915280546001600160a01b03199081166001600160a01b039384161790915560208301515f80516020620012a18339815191528054831691841691909117905560408301517f9e7b61f58c47dc699ac88507c4f5bb9f121c03808c5676a8078fe583e46497028054831691841691909117905560608301517f9e7b61f58c47dc699ac88507c4f5bb9f121c03808c5676a8078fe583e46497038054909216921691909117905550565b5f620001f98262000232565b335f908152600360205260409020819055600581905590506200021c816200024f565b5062000229813362000260565b5050506200056d565b5f620002496001600160401b038316600562000274565b92915050565b5f6200025c823062000312565b5090565b5f6200026d838362000312565b5090919050565b5f80516020620012a183398151915254604051639cd07acb60e01b81525f915f80516020620012c1833981519152916001600160a01b0390911690639cd07acb90620002c7908790879060040162000524565b6020604051808303815f875af1158015620002e4573d5f803e3d5ffd5b505050506040513d601f19601f820116820180604052508101906200030a919062000555565b949350505050565b5f5f80516020620012c18339815191528054604051635ca4b5b160e11b8152600481018690526001600160a01b03858116602483015292935091169063b9496b62906044015f604051808303815f87803b1580156200036f575f80fd5b505af115801562000382573d5f803e3d5ffd5b50505050505050565b634e487b7160e01b5f52604160045260245ffd5b600181811c90821680620003b457607f821691505b602082108103620003d357634e487b7160e01b5f52602260045260245ffd5b50919050565b601f8211156200042457805f5260205f20601f840160051c81016020851015620004005750805b601f840160051c820191505b8181101562000421575f81556001016200040c565b50505b505050565b81516001600160401b038111156200044557620004456200038b565b6200045d816200045684546200039f565b84620003d9565b602080601f83116001811462000493575f84156200047b5750858301515b5f19600386901b1c1916600185901b178555620004ed565b5f85815260208120601f198616915b82811015620004c357888601518255948401946001909101908401620004a2565b5085821015620004e157878501515f19600388901b60f8161c191681555b505060018460011b0185555b505050505050565b5f6020828403121562000506575f80fd5b81516001600160401b03811681146200051d575f80fd5b9392505050565b82815260408101605483106200054857634e487b7160e01b5f52602160045260245ffd5b8260208301529392505050565b5f6020828403121562000566575f80fd5b5051919050565b610d26806200057b5f395ff3fe608060405234801561000f575f80fd5b506004361061009b575f3560e01c80637b7e0a5a116100635780637b7e0a5a1461012557806395d89b41146101485780639a09435214610150578063b32c100114610163578063da1f12ab14610176575f80fd5b806306fdde031461009f57806318160ddd146100bd578063313ce567146100d45780636d6bfb73146100f357806370a08231146100fd575b5f80fd5b6100a761017e565b6040516100b49190610a8a565b60405180910390f35b6100c660055481565b6040519081526020016100b4565b6002546100e19060ff1681565b60405160ff90911681526020016100b4565b6100fb610209565b005b6100c661010b366004610ab7565b6001600160a01b03165f9081526003602052604090205490565b610138610133366004610b15565b610224565b60405190151581526020016100b4565b6100a761027e565b61013861015e366004610b6b565b61028b565b610138610171366004610b15565b610382565b6127116100c6565b5f805461018a90610bd5565b80601f01602080910402602001604051908101604052809291908181526020018280546101b690610bd5565b80156102015780601f106101d857610100808354040283529160200191610201565b820191905f5260205f20905b8154815290600101906020018083116101e457829003601f168201915b505050505081565b335f8181526003602052604090205461022191610440565b50565b5f806102658585858080601f0160208091040260200160405190810160405280939291908181526020018383808284375f9201919091525061045292505050565b9050610272338783610466565b50600195945050505050565b6001805461018a90610bd5565b5f806102cc8585858080601f0160208091040260200160405190810160405280939291908181526020018383808284375f9201919091525061045292505050565b6001600160a01b0388165f908152600460209081526040808320338452909152812054919250906102fd908361057f565b90505f610313828461030e5f6105ad565b6105c9565b6001600160a01b038a165f90815260046020908152604080832033845290915290205490915061034390826105dd565b6001600160a01b038a165f908152600460209081526040808320338452909152902055610371898983610466565b600193505050505b95945050505050565b5f806103c38585858080601f0160208091040260200160405190810160405280939291908181526020018383808284375f9201919091525061045292505050565b335f9081526004602090815260408083206001600160a01b038b168452909152902081905590506103f38161060b565b506103fe8187610440565b506040516001600160a01b0387169033907ff37f546c25e850257cc0c94f92bec94a17e2f0e884ddda268a25d8144b70eb6a905f90a350600195945050505050565b5f61044b838361061a565b5090919050565b5f61045f83836005610690565b9392505050565b6001600160a01b0383165f90815260036020526040812054610488908361057f565b90505f610499828461030e5f6105ad565b6001600160a01b0386165f90815260036020526040812054919250906104bf90836105dd565b6001600160a01b0386165f90815260036020526040812054919250906104e5908461078a565b6001600160a01b038089165f9081526003602052604080822086905591891681522081905590506105158261060b565b5061051f8161060b565b5061052a8288610440565b506105358187610440565b50856001600160a01b0316876001600160a01b03167f4853ae1b4d437c4255ac16cd3ceda3465975023f27cb141584cd9d44440fed8260405160405180910390a350505050505050565b5f826105915761058e5f6105ad565b92505b816105a25761059f5f6105ad565b91505b61045f83835f6107b8565b5f6105c38267ffffffffffffffff166005610865565b92915050565b5f6105d58484846108f4565b949350505050565b5f826105ef576105ec5f6105ad565b92505b81610600576105fd5f6105ad565b91505b61045f83835f610981565b5f610616823061061a565b5090565b5f5f80516020610cd18339815191528054604051635ca4b5b160e11b8152600481018690526001600160a01b03858116602483015292935091169063b9496b62906044015f604051808303815f87803b158015610675575f80fd5b505af1158015610687573d5f803e3d5ffd5b50505050505050565b5f80516020610cb18339815191525460405163196d0b9b60e01b81525f915f80516020610cd1833981519152916001600160a01b039091169063196d0b9b906106e3908890339089908990600401610c2d565b6020604051808303815f875af11580156106ff573d5f803e3d5ffd5b505050506040513d601f19601f820116820180604052508101906107239190610c65565b8154604051630f8e573b60e21b8152600481018390523360248201529193506001600160a01b031690633e395cec906044015f604051808303815f87803b15801561076c575f80fd5b505af115801561077e573d5f803e3d5ffd5b50505050509392505050565b5f8261079c576107995f6105ad565b92505b816107ad576107aa5f6105ad565b91505b61045f83835f6109e4565b5f8082156107cb5750600160f81b6107ce565b505f5b5f80516020610cb183398151915254604051631391547f60e01b81525f80516020610cd1833981519152916001600160a01b031690631391547f9061081b90899089908790600401610c7c565b6020604051808303815f875af1158015610837573d5f803e3d5ffd5b505050506040513d601f19601f8201168201806040525081019061085b9190610c65565b9695505050505050565b5f80516020610cb183398151915254604051639cd07acb60e01b81525f915f80516020610cd1833981519152916001600160a01b0390911690639cd07acb906108b49087908790600401610c9c565b6020604051808303815f875af11580156108d0573d5f803e3d5ffd5b505050506040513d601f19601f820116820180604052508101906105d59190610c65565b5f805f80516020610cd18339815191526001810154604051637702dcff60e01b81526004810188905260248101879052604481018690529192506001600160a01b031690637702dcff906064016020604051808303815f875af115801561095d573d5f803e3d5ffd5b505050506040513d601f19601f820116820180604052508101906103799190610c65565b5f8082156109945750600160f81b610997565b505f5b5f80516020610cb1833981519152546040516303056db360e31b81525f80516020610cd1833981519152916001600160a01b03169063182b6d989061081b90899089908790600401610c7c565b5f8082156109f75750600160f81b6109fa565b505f5b5f80516020610cb18339815191525460405163022f65e760e31b81525f80516020610cd1833981519152916001600160a01b03169063117b2f389061081b90899089908790600401610c7c565b5f81518084525f5b81811015610a6b57602081850181015186830182015201610a4f565b505f602082860101526020601f19601f83011685010191505092915050565b602081525f61045f6020830184610a47565b80356001600160a01b0381168114610ab2575f80fd5b919050565b5f60208284031215610ac7575f80fd5b61045f82610a9c565b5f8083601f840112610ae0575f80fd5b50813567ffffffffffffffff811115610af7575f80fd5b602083019150836020828501011115610b0e575f80fd5b9250929050565b5f805f8060608587031215610b28575f80fd5b610b3185610a9c565b935060208501359250604085013567ffffffffffffffff811115610b53575f80fd5b610b5f87828801610ad0565b95989497509550505050565b5f805f805f60808688031215610b7f575f80fd5b610b8886610a9c565b9450610b9660208701610a9c565b935060408601359250606086013567ffffffffffffffff811115610bb8575f80fd5b610bc488828901610ad0565b969995985093965092949392505050565b600181811c90821680610be957607f821691505b602082108103610c0757634e487b7160e01b5f52602260045260245ffd5b50919050565b60548110610c2957634e487b7160e01b5f52602160045260245ffd5b9052565b8481526001600160a01b03841660208201526080604082018190525f90610c5690830185610a47565b90506103796060830184610c0d565b5f60208284031215610c75575f80fd5b5051919050565b92835260208301919091526001600160f81b031916604082015260600190565b8281526040810161045f6020830184610c0d56fe9e7b61f58c47dc699ac88507c4f5bb9f121c03808c5676a8078fe583e46497019e7b61f58c47dc699ac88507c4f5bb9f121c03808c5676a8078fe583e4649700a2646970667358221220c3a2ec077f2f9283dfb5e17ca4cb2ac9e776b78ba38d2c27567acd0f6af23c6564736f6c634300081800339e7b61f58c47dc699ac88507c4f5bb9f121c03808c5676a8078fe583e46497019e7b61f58c47dc699ac88507c4f5bb9f121c03808c5676a8078fe583e4649700",
  "linkReferences": {},
  "deployedLinkReferences": {}
}